:100000000C9462000C948A000C948A000C948A0070
:100010000C948A000C948A000C948A000C948A0038
:100020000C948A000C948A000C948A000C94B204FC
:100030000C948A000C948A000C948A000C948A0018
:100040000C9410040C948A000C9480040C945A04B0
:100050000C948A000C948A000C948A000C948A00F8
:100060000C948A000C948A000000000023002600F3
:10007000290000000000240027002A0000000000E2
:10008000250028002B0004040404040404040202D4
:100090000202020203030303030301020408102007
:1000A0004080010204081020010204081020000012
:1000B0000008000201000003040700000000000027
:1000C0000000B30511241FBECFEFD8E0DEBFCDBFC7
:1000D00012E0A0E0B1E0EEE4FEE102C005900D9276
:1000E000AA31B107D9F723E0AAE1B2E001C01D921D
:1000F000A832B207E1F710E0C2E6D0E004C02197D1
:10010000FE010E94D70CC136D107C9F70E9418061C
:100110000C94250F0C940000833081F028F481307A
:1001200099F08230A9F008958730A9F08830C9F09D
:100130008430B1F4809180008F7D03C08091800075
:100140008F7780938000089584B58F7784BD08955C
:1001500084B58F7DFBCF8091B0008F778093B00006
:1001600008958091B0008F7DF9CF1F93CF93DF93D7
:10017000282F30E0F901E255FF4F8491F901E6564E
:10018000FF4FD491F901EA57FF4FC491CC23A9F056
:10019000162F81110E948C00EC2FF0E0EE0FFF1F54
:1001A000E458FF4FA591B4918FB7F894EC911111D9
:1001B00008C0D095DE23DC938FBFDF91CF911F91D4
:1001C0000895DE2BF8CFCF93DF9390E0FC01E65645
:1001D000FF4F24918A579F4FFC0184918823C9F0D7
:1001E00090E0880F991FFC01EE58FF4FA591B49144
:1001F000FC01E458FF4FC591D49161110DC09FB728
:10020000F8948C91209582238C93888128232883CD
:100210009FBFDF91CF910895623051F49FB7F8945A
:100220003C91822F809583238C93E8812E2BEFCFF6
:100230008FB7F894EC912E2B2C938FBFEACFAF920F
:10024000BF92CF92DF92EF92FF920F931F93CF93C3
:10025000DF936C017B018B01040F151FEB015E0125
:10026000AE18BF08C017D10759F06991D601ED91BA
:10027000FC910190F081E02DC6010995892B79F759
:10028000C501DF91CF911F910F91FF90EF90DF900B
:10029000CF90BF90AF900895FC01538D448D252FD2
:1002A00030E0842F90E0821B930B541710F0CF9610
:1002B000089501970895FC01918D828D981761F042
:1002C000A28DAE0FBF2FB11D5D968C91928D9F5F59
:1002D0009F73928F90E008958FEF9FEF08952FB74F
:1002E000F89480913A0290913B02A0913C02B09127
:1002F0003D022FBF8093460290934702A09348028D
:10030000B09349028EE392E00E945B0197FF26C002
:100310002FB7F89480913A0290913B02A0913C0251
:10032000B0913D022FBF409146025091470260912B
:10033000480270914902841B950BA60BB70B4091A4
:100340004202509143026091440270914502841729
:100350009507A607B707B0F28FEF9FEF0895FC014E
:10036000918D828D981731F0828DE80FF11D858D6A
:1003700090E008958FEF9FEF0895FC01918D228DFD
:10038000892F90E0805C9F4F821B91098F73992782
:1003900008958EE392E00E94BD0121E0892B09F4CB
:1003A00020E0822F089580E090E0892B29F00E94C0
:1003B000C90181110C9400000895FC01A48DA80FBF
:1003C000B92FB11DA35ABF4F2C91848D90E0019697
:1003D0008F739927848FA689B7892C93A089B189B7
:1003E0008C91837080648C93938D848D981306C058
:1003F0000288F389E02D80818F7D80830895EF92BC
:10040000FF920F931F93CF93DF93EC0181E0888FCE
:100410009B8D8C8D98131AC0E889F989808185FF9E
:1004200015C09FB7F894EE89FF896083E889F98940
:1004300080818370806480839FBF81E090E0DF9142
:10044000CF911F910F91FF90EF900895F62E0B8D95
:1004500010E00F5F1F4F0F731127E02E8C8D8E1150
:100460000CC00FB607FCFACFE889F989808185FFB7
:10047000F5CFCE010E94DD01F1CFEB8DEC0FFD2F0A
:10048000F11DE35AFF4FF0829FB7F8940B8FEA8972
:10049000FB8980818062CFCFCF93DF93EC01888D81
:1004A0008823B9F0AA89BB89E889F9898C9185FDEF
:1004B00003C0808186FD0DC00FB607FCF7CF8C917D
:1004C00085FFF2CF808185FFEDCFCE010E94DD0157
:1004D000E9CFDF91CF910895FC0101900020E9F769
:1004E0003197AF01481B590BBC018EE392E00C948D
:1004F0001F01CF93DF930E946C02EC0188E191E031
:100500000E946C028C0F9D1FDF91CF9108950C9477
:100510006C028F929F92AF92BF92CF92DF92EF9236
:10052000FF920F931F93CF93DF93CDB7DEB7A197C1
:100530000FB6F894DEBF0FBECDBF6C01990FEE0869
:10054000FF08F7FE41C06DE28EE392E00E94FF01DA
:100550008C0122273327A9012C193D094E095F0977
:1005600019A2CE0181967C019AE0892E912CA12CB2
:10057000B12CCA01B901A50194010E94640C605D0F
:10058000F70162937F01211531054105510589F776
:1005900090E080E0309719F0CF010E946C02800F4C
:1005A000911FA1960FB6F894DEBF0FBECDBFDF91AD
:1005B000CF911F910F91FF90EF90DF90CF90BF9060
:1005C000AF909F908F900895A701960119A28E0178
:1005D0000F5D1F4F8AE0C82ED12CE12CF12CCA01EF
:1005E000B901A70196010E94640C605DF801629355
:1005F0008F01211531054105510589F790E080E013
:10060000309779F2CF010E946C02CBCFEF92FF922C
:100610000F931F93CF93DF937C018B01EA018BE152
:1006200091E00E948702C7010E94870289E291E05F
:100630000E948702C8010E94890282E391E00E9421
:100640008702CE010E94890285E691E0DF91CF9179
:100650001F910F91FF90EF900C947902EF92FF920F
:100660000F931F93CF93DF937C018B01EA018CE3FF
:1006700091E00E948702C7010E94870289E291E00F
:100680000E948702C8010E94890282E391E00E94D1
:100690008702CE010E94890285E691E0DF91CF9129
:1006A0001F910F91FF90EF900C9479020F931F937D
:1006B000CF93DF93EC0188819981009759F02A81CB
:1006C0003B812617370730F081E0DF91CF911F91F2
:1006D0000F9108958B016F5F7F4F0E94020E00976C
:1006E00059F0998388831B830A832C813D81232BB6
:1006F00059F7FC011082E8CF80E0E7CFCF92DF927C
:10070000EF92FF920F931F93CF93DF93CDB7DEB796
:10071000E0970FB6F894DEBF0FBECDBF7C016B0132
:1007200067E172E08E010F5F1F4FC8010E94E70E64
:10073000B601C8010E94C80E69E371E0C8010E94B9
:10074000C80EB801C7010E940B0F009709F462C0E0
:10075000F80101900020E9F73197E01BF10BE80F59
:10076000F91F7F0191919032E1F3923289F57F0177
:1007700062E270E0CF010E94D30E009709F44AC0F4
:100780008C010E191F090031110514F00FE010E063
:10079000A801B701CE0181960E94FC0EE1E2F0E0D3
:1007A000EC0FFD1FE00FF11F1082CE0181960E9419
:1007B000CE0AE0960FB6F894DEBF0FBECDBFDF9134
:1007C000CF911F910F91FF90EF90DF90CF90089500
:1007D0009D3219F090539A3010F4C701E8CF44E0ED
:1007E00050E065E471E0C7010E94EE0E892BA9F08C
:1007F00045E050E06AE471E0C7010E94EE0E21E09E
:1008000030E0892B11F430E020E088279927821B03
:10081000930BCFCF8FEF9FEFCCCF81E090E0C9CF8C
:100820001F920F920FB60F9211242F933F938F9325
:100830009F93AF93BF9380913A0290913B02A09116
:100840003C02B0913D023091390223E0230F2D3755
:1008500058F50196A11DB11D2093390280933A02EB
:1008600090933B02A0933C02B0933D0280913502ED
:1008700090913602A0913702B09138020196A11DE5
:10088000B11D8093350290933602A0933702B09346
:100890003802BF91AF919F918F913F912F910F900F
:1008A0000FBE0F901F90189526E8230F0296A11DEA
:1008B000B11DD2CF1F920F920FB60F9211242F931A
:1008C0003F934F935F936F937F938F939F93AF93D8
:1008D000BF93EF93FF938EE392E00E94DD01FF91BF
:1008E000EF91BF91AF919F918F917F916F915F91A8
:1008F0004F913F912F910F900FBE0F901F90189521
:100900001F920F920FB60F9211242F938F939F93E4
:10091000EF93FF93E0914E02F0914F028081E091BE
:100920005402F091550282FD1BC0908180915702C4
:100930008F5F8F7320915802821741F0E091570228
:10094000F0E0E25CFD4F958F80935702FF91EF91AD
:100950009F918F912F910F900FBE0F901F90189520
:100960008081F4CF1F920F920FB60F9211242F9314
:100970003F934F935F936F937F938F939F93AF9327
:10098000BF93CF93DF93EF93FF9380911A02C091AF
:10099000FF02D0E087FF24C01092850010928400EF
:1009A00080911A028F5F80931A0280911A02082E9A
:1009B000000C990B8C179D0724F480911A028C303F
:1009C000C4F18091840090918500049680349C4904
:1009D00008F47AC08091840090918500049676C0D6
:1009E00080911A02082E000C990B8C179D07C4F6F3
:1009F000E0911A028E2FEE0F990BFC01EE0FFF1FF4
:100A0000E80FF91FE552FD4F808186FFC9CFE091C5
:100A10001A028E2FEE0F990BFC01EE0FFF1FE80F4D
:100A2000F91FE552FD4F808160E08F730E94B50091
:100A3000B7CF2091840030918500E0911A028E2F6B
:100A4000EE0F990BFC01EE0FFF1FE80FF91FE552A7
:100A5000FD4F81819281820F931F90938900809333
:100A60008800E0911A028E2FEE0F990BFC01EE0F19
:100A7000FF1FE80FF91FE552FD4F808186FF11C06F
:100A8000E0911A028E2FEE0F990BFC01EE0FFF1F63
:100A9000E80FF91FE552FD4F808161E08F730E94DE
:100AA000B500FF91EF91DF91CF91BF91AF919F91F1
:100AB0008F917F916F915F914F913F912F910F9007
:100AC0000FBE0F901F90189580E49CE990938900C9
:100AD000809388008FEF80931A02E3CFCF92DF924A
:100AE000EF92FF920F931F93E82FF92F05C001504B
:100AF00011092109310961F1908196239417B9F305
:100B000005C0015011092109310911F19081962385
:100B10009413F7CFC12CD12CE12CF12C0AC08FEF0C
:100B2000C81AD80AE80AF80A0C151D052E053F0553
:100B300079F080818623841791F36C2D7D2D8E2D85
:100B40009F2D1F910F91FF90EF90DF90CF90089510
:100B500060E070E080E090E01F910F91FF90EF90D7
:100B6000DF90CF900895109241021092400288EEDB
:100B700093E0A0E0B0E08093420290934302A09300
:100B80004402B09345028AE091E090933F02809343
:100B90003E0285EC90E090934B0280934A0284ECF5
:100BA00090E090934D0280934C0280EC90E0909303
:100BB0004F0280934E0281EC90E09093510280931B
:100BC000500282EC90E0909353028093520286ECA4
:100BD00090E0909355028093540210925702109225
:100BE00058021092590210925A02E0E0F3E024E217
:100BF00033E04FEF68EB7BE08091FF028C30B0F484
:100C000091E0980F9093FF02808390E0DC01AA0F9F
:100C1000BB1FA80FB91FA552BD4F12967C936E93B0
:100C2000119733962E173F0739F708954083F9CF70
:100C3000CF93DF93CDB7DEB7C654D1090FB6F89482
:100C4000DEBF0FBECDBF789484B5826084BD84B50D
:100C5000816084BD85B5826085BD85B5816085BDB7
:100C600080916E00816080936E001092810080916F
:100C700081008260809381008091810081608093F7
:100C80008100809180008160809380008091B1001C
:100C900084608093B1008091B00081608093B00047
:100CA00080917A00846080937A0080917A008260DB
:100CB00080937A0080917A00816080937A0080919D
:100CC0007A00806880937A001092C100E0914E0211
:100CD000F0914F0282E08083E0914A02F0914B0252
:100CE0001082E0914C02F0914D0280E180831092DD
:100CF0005602E0915202F091530286E08083E09127
:100D00005002F0915102808180618083E091500215
:100D1000F0915102808188608083E0915002F091CF
:100D20005102808180688083E0915002F0915102ED
:100D300080818F7D808361E08DE00E94E3009E01D1
:100D40002F5F3F4F39018EE392E00E94BD011816DC
:100D500019060CF010C123961FAE1EAE23972596E0
:100D60001FAE1EAE259727961FAE1EAE279770E0CA
:100D700060E0CE018F5B9F4F0E94560323962EADFD
:100D80003FAD239781113BC02115310519F0C901F1
:100D90000E94790D23961FAE1EAE239727961FAE95
:100DA0001EAE279725961FAE1EAE25970E946F0197
:100DB00027960EAD1FAD279797FD2BC08A30910562
:100DC00041F189831A820F5F1F4FB801CE018F5BFB
:100DD0009F4F0E945603882349F323962EAD3FADC3
:100DE000239727968EAD9FAD2797B301820F931F50
:100DF0000E94E70E27961FAF0EAF2797D7CF2796F3
:100E00001FAE1EAE27976AE171E0C9010E94E70E8E
:100E1000CDCF2396CEACDFAC2397C114D10429F0FB
:100E200076010115110509F052C027968EAD9FADD0
:100E30002797892B09F497C023960EAD1FAD2397F2
:100E400019A267E172E0C3010E94E70E60E571E05C
:100E5000C3010E94C80E65E172E0C3010E94C80E82
:100E6000B301C8010E940B0F009741F1F3010190FB
:100E70000020E9F73197E619F7096C01CE0EDF1E65
:100E800062E270E0C6010E94D30E0097B9F07C01C7
:100E9000EC18FD08F0E2EF16F1041CF04FE1E42E2F
:100EA000F12CA701B601CE0181960E94FC0EE1E271
:100EB000F0E0EC0FFD1FEE0DFF1D108289A18111E6
:100EC00042C084E591E00E9479024DC0750157014E
:100ED0003FEFA31AB30AF7018081082E000C990B8B
:100EE0000E94F40A892B91F7015011090C0D1D1D68
:100EF000F8018081082E000C990B0E94F40A892BBE
:100F000031F00E151F0518F001501109F1CFA8019D
:100F10004F5F5F4F4E195F0927965FAF4EAF279720
:100F2000CE14DF0420F4B701C6010E94BF0E239641
:100F3000EEADFFAD239727968EAD9FAD2797E80FB7
:100F4000F91F108272CF67E671E0CE0181960E9490
:100F5000DE0E892BE9F441E050E070E060E087E6C6
:100F600091E00E94060323968EAD9FAD23970097D4
:100F700011F00E94790D20E030E0232B09F4E3CE3C
:100F80000E94C901882309F4DECE0E940000DBCE56
:100F900060E771E0CE0181960E94DE0E892B01F59B
:100FA00069E771E0C8010E947E037C016DE771E092
:100FB000C8010E947E038C01F7FCD5CF62E082302D
:100FC000910521F060E0892B09F061E08E2D0E94EF
:100FD000E300A801B70180E791E00E942E03C3CF90
:100FE00063E871E0CE0181960E94DE0E892BD9F470
:100FF00069E771E0C8010E947E037C016DE771E042
:10100000C8010E947E03F7FCAECF11E0892B09F4E2
:1010100010E0612F8E2D0E94B500412F50E0B701E6
:1010200083E891E0DACF61E971E0CE0181960E9418
:10103000DE0E7C01892B09F030C069E771E0C80140
:101040000E947E038C0197FD8ECF9C013327F9010E
:10105000E255FF4F8491F901E656FF4FC490F90124
:10106000EA57FF4FD490DD2099F081110E948C0047
:10107000ED2DF0E0EE0FFF1FE859FF4FA591B49161
:10108000EC91CE2291E080E009F490E0E92EF82E78
:10109000A701B80181E991E064CF6EE971E0CE016A
:1010A00081960E94DE0E892B09F067C069E771E026
:1010B000C8010E947E037C016DE771E0C8010E94B7
:1010C0007E038C01F7FC4FCF61E08E2D0E94E30080
:1010D0000115110529F460E08E2D0E94B50029C08C
:1010E0000F3F110511F461E0F7CFF701FF27E2553B
:1010F000FF4FE491E33039F140F4E130B1F0E230F8
:10110000E9F0003811057CF7E6CFE73031F1E8303F
:1011100061F1E430B1F780918000806280938000BB
:1011200010938B0000938A0004C084B5806884BD4E
:1011300007BDA801B7018EE991E04FCF84B5806269
:1011400084BD08BDF6CF80918000806880938000C8
:101150001093890000938800ECCF8091B0008068E4
:101160008093B0000093B300E4CF8091B000806220
:101170008093B0000093B400DCCF6BEA71E0CE0145
:1011800081960E94DE0E892B09F569E771E0C8019E
:101190000E947E03BC0197FDE6CE982F8E3010F0A2
:1011A00092EF960F9770906490937C0080917A00F4
:1011B000806480937A0080917A0086FDFCCF409114
:1011C0007800509179008BEA91E0CBCE67EB71E02B
:1011D000CE0181960E94DE0E6C01892B11F569E724
:1011E00071E0C8010E947E035C0163EC71E0C801FC
:1011F0000E947E038C01B7FCB6CEE0903302F090E3
:101200003402EBE1F2E0CE14DF040CF0CAC08191AD
:101210009191A816B90609F43EC12FEFC21AD20A5D
:10122000F2CF69EC71E0CE0181960E94DE0E892B2F
:10123000E9F46AED71E0C8010E947E037C016FED64
:1012400071E0C8010E947E038C01F7FC04C061E0DC
:101250008E2D0E94E30017FD04C060E0802F0E94E5
:10126000E300A801B70189EC91E0B7CE64EE71E02C
:10127000CE0181960E94DE0E892B09F05BC069E7E2
:1012800071E0C8010E947E037C016FED71E0C8012E
:101290000E947E038C0197FF7EC1F7FC64CE87011C
:1012A00060E08E2D0E94B50083E090E00197F1F799
:1012B00061E08E2D0E94B50083E290E00197F1F786
:1012C00060E08E2D0E94B5001127F801E656FF4F11
:1012D0006491F801EA57FF4FE491F0E0EE0FFF1F31
:1012E000E859FF4F8591949100E315E720E030E045
:1012F000462F0E946E05611571058105910529F043
:101300006F5F7F4F8F4F9F4F9F700E94FF0A26E9AC
:1013100033E44BE05DE30E943A0B20E030E040E034
:101320005FE30E943A0B0E94950CAB01B70184EE7B
:1013300091E017CE64EF71E0CE0181960E94DE0E3F
:10134000009721F52091330230913402A0E0B3E000
:101350008217930784F4EC914E2F50E0FA01EE0FC0
:10136000FF1FE40FF51FE552FD4F40814F7B408387
:1013700001961396EDCF109234021092330250E092
:1013800040E070E060E084EF91E027CE8AEF91E0EA
:101390000E948702CE0181960E94870284E691E036
:1013A00092CD3CE0E316F10409F4F0C06701CC0CE7
:1013B000DD1CF601E55EFD4FB182A082C6018E0DF7
:1013C0009F1DAC0140505D4F4A01FA0180818C3075
:1013D00008F055C061E08A2D0E94E300F40180818D
:1013E000282F30E0F901EE0FFF1FE20FF31FE55247
:1013F000FD4F9081907C2A2D2F73922B9083F401C6
:10140000118212826CE00E94CB0C869FA0011124F5
:1014100030E020E0BA01620F731FFB01EE0FFF1FE7
:10142000E60FF71FE552FD4F908196FD16C02F5F26
:101430003F4F2C30310571F781110FC010928000A1
:1014400082E0809381001092850010928400B19A0E
:1014500080916F00826080936F00F601EE0DFF1D9A
:10146000E050FD4FE0818E2F90E0FC01EE0FFF1F5A
:10147000E80FF91FE552FD4F8081806480838091E1
:101480003302909134020196909334028093330298
:10149000F7FC7CC0670117FD79C07601EE0CFF1CDC
:1014A00018010032F2E01F07D4F5F701EC0DFD1D25
:1014B000E050FD4F818148E8242E312C281A310854
:1014C00087FD3394220C331C220C331C032C000C9C
:1014D00044085508828128E532E0281B310987FD40
:1014E0003395220F331F220F331F032E000C440BA2
:1014F000550B2219330944095509D801053B11053B
:1015000014F0A4EBB0E00E94250C24EB30E040E0A6
:1015100050E00E94FB0B220E331E441E551EF701A5
:10152000EC0DFD1DE050FD4F20812C3078F58181C0
:1015300048E850E0481B510987FD5395CA01880FC0
:10154000991F880F991F2816390684F08281E8E5D3
:10155000F2E0E81BF10987FDF395CF01880F991F91
:10156000880F991F281639060CF4C1010297880FBD
:10157000991F4FB7F89430E0F901EE0FFF1FE20F0B
:10158000F31FE552FD4F928381834FBFA801B50140
:1015900087EB91E022CDF7FE83CEE5CCFC018827D6
:1015A0009927E89421912032E9F3293010F02E3068
:1015B000C8F32B3241F02D3239F4689404C00E94F4
:1015C000EC0A820F911D219120532A30C0F31EF4A2
:1015D000909581959F4F08957AE0979F902D879FD2
:1015E000802D910D1124089591110C94A70B803238
:1015F00019F089508550C8F70895E89409C097FB01
:101600003EF490958095709561957F4F8F4F9F4FD9
:101610009923A9F0F92F96E9BB279395F69587951D
:1016200077956795B795F111F8CFFAF4BB0F11F4E0
:1016300060FF1BC06F5F7F4F8F4F9F4F16C0882387
:1016400011F096E911C0772321F09EE8872F762FBD
:1016500005C0662371F096E8862F70E060E02AF0FE
:101660009A95660F771F881FDAF7880F96958795EA
:1016700097F908950E944D0B0C94C10B0E94B30B77
:1016800038F00E94BA0B20F0952311F00C94AA0BAD
:101690000C94B00B11240C94F50B0E94D20B70F338
:1016A000959FC1F3950F50E0551F629FF001729F07
:1016B000BB27F00DB11D639FAA27F00DB11DAA1F16
:1016C000649F6627B00DA11D661F829F2227B00D63
:1016D000A11D621F739FB00DA11D621F839FA00DEE
:1016E000611D221F749F3327A00D611D231F849F3E
:1016F000600D211D822F762F6A2F11249F57504095
:101700009AF0F1F088234AF0EE0FFF1FBB1F661F0F
:10171000771F881F91505040A9F79E3F510580F0D8
:101720000C94AA0B0C94F50B5F3FE4F3983ED4F3B2
:10173000869577956795B795F795E7959F5FC1F77C
:10174000FE2B880F911D9695879597F908959927F7
:101750008827089597F99F6780E870E060E0089512
:101760009FEF80EC089500240A94161617061806B9
:101770000906089500240A94121613061406050695
:101780000895092E0394000C11F4882352F0BB0F26
:1017900040F4BF2B11F460FF04C06F5F7F4F8F4F89
:1017A0009F4F089557FD9058440F551F59F05F3FC4
:1017B00071F04795880F97FB991F61F09F3F79F073
:1017C00087950895121613061406551FF2CF4695F5
:1017D000F1DF08C0161617061806991FF1CF869577
:1017E0007105610508940895E894BB27662777275B
:1017F000CB0197F90895052E97FB1EF400940E94E3
:10180000120C57FD07D00E94640C07FC03D04EF465
:101810000C94120C50954095309521953F4F4F4FA9
:101820005F4F089590958095709561957F4F8F4F8C
:101830009F4F08950E94860CA59F900DB49F900D18
:10184000A49F800D911D11240895B7FF0C941A0CCC
:101850000E941A0C821B930B08952F923F924F9275
:101860005F926F927F928F929F92AF92BF92CF9230
:10187000DF92EF92FF920F931F93CF93DF93CDB739
:10188000DEB7CA1BDB0B0FB6F894DEBF0FBECDBFB1
:1018900009942A88398848885F846E847D848C8482
:1018A0009B84AA84B984C884DF80EE80FD800C818B
:1018B0001B81AA81B981CE0FD11D0FB6F894DEBF6E
:1018C0000FBECDBFED010895A1E21A2EAA1BBB1BCE
:1018D000FD010DC0AA1FBB1FEE1FFF1FA217B307FC
:1018E000E407F50720F0A21BB30BE40BF50B661F12
:1018F000771F881F991F1A9469F7609570958095D6
:1019000090959B01AC01BD01CF010895A29FB0014C
:10191000B39FC001A39F700D811D1124911DB29F23
:10192000700D811D1124911D08950E949C0C6894D6
:10193000B1110C94F50B08950E94DA0B88F09F57B3
:1019400098F0B92F9927B751B0F0E1F0660F771FE3
:10195000881F991F1AF0BA95C9F714C0B13091F0D9
:101960000E94F40BB1E008950C94F40B672F782FCC
:101970008827B85F39F0B93FCCF38695779567959E
:10198000B395D9F73EF490958095709561957F4F0A
:101990008F4F9F4F0895991B79E004C0991F9617A8
:1019A00008F0961B881F7A95C9F780950895EE0F69
:1019B000FF1F0590F491E02D09940F931F93CF938F
:1019C000DF938230910510F482E090E0E0912603ED
:1019D000F091270330E020E0B0E0A0E0309799F4E8
:1019E0002115310509F44AC0281B390B2430310573
:1019F000D8F58A819B816115710589F1FB0193837B
:101A00008283FE0111C040815181028113814817F8
:101A10005907E0F04817590799F4109761F01296AA
:101A20000C93129713961C933296CF01DF91CF91AE
:101A30001F910F9108950093260310932703F4CF6D
:101A40002115310551F04217530738F0A901DB0188
:101A50009A01BD01DF01F801C1CFEF01F9CF9093E9
:101A6000270380932603CDCFFE01E20FF31F81935E
:101A700091932250310939832883D7CF20912403B1
:101A800030912503232B41F4209102013091030171
:101A9000309325032093240320910001309101010C
:101AA0002115310541F42DB73EB740910401509105
:101AB0000501241B350BE0912403F0912503E21767
:101AC000F307A0F42E1B3F0B2817390778F0AC0161
:101AD0004E5F5F4F2417350748F04E0F5F1F50933E
:101AE000250340932403819391939FCFF0E0E0E09E
:101AF0009CCFCF93DF930097E9F0FC0132971382DC
:101B00001282A0912603B0912703ED0130E020E07E
:101B10001097A1F420813181820F931F209124031B
:101B2000309125032817390709F061C0F093250388
:101B3000E0932403DF91CF910895EA01CE17DF07E8
:101B4000E8F54A815B819E0141155105B1F7E90134
:101B5000FB83EA8349915991C40FD51FEC17FD0708
:101B600061F4808191810296840F951FE901998328
:101B70008883828193819B838A83F0E0E0E01296E0
:101B80008D919C9113970097B9F52D913C911197E8
:101B9000CD010296820F931F2091240330912503DB
:101BA0002817390739F6309751F51092270310920C
:101BB0002603B0932503A0932403BCCFD383C28311
:101BC00040815181840F951FC817D90761F44E5F7A
:101BD0005F4F88819981480F591F518340838A81C3
:101BE0009B81938382832115310509F0B0CFF09357
:101BF0002703E09326039ECFFD01DC01C0CF1382B3
:101C00001282D7CFB0E0A0E0E8E0FEE00C942F0C09
:101C10008C01009751F4CB010E94DD0C8C01C801AE
:101C2000CDB7DEB7E0E10C944B0CFC01E60FF71FDB
:101C30009C0122503109E217F30708F49DC0D90135
:101C4000CD91DC911197C617D70798F0C530D10513
:101C500030F3CE0104978617970708F3C61BD70BFE
:101C60002297C193D1936D937C93CF010E94790DFC
:101C7000D6CF5B01AC1ABD0A4C018C0E9D1EA09103
:101C80002603B0912703512C412CF12CE12C109705
:101C900031F580912403909125038815990509F069
:101CA0005CC04616570608F058C08091000190911C
:101CB0000101009741F48DB79EB740910401509106
:101CC0000501841B950BE817F90708F055C0F09340
:101CD0002503E0932403F90171836083A0CF8D91E4
:101CE0009C91119712966C90129713967C90139773
:101CF000A815B90559F56C0142E0C40ED11CCA14EF
:101D0000DB0420F1AC014A195B09DA011296159740
:101D100080F06282738251834083D9016D937C93FA
:101D2000E114F10471F0D7011396FC93EE9312972E
:101D300076CF22968C0F9D1FF90191838083F3014A
:101D4000EFCFF0932703E093260369CF4816590697
:101D500008F42C017D01D3019ACFCB010E94DD0C48
:101D60007C01009749F0AE01B8010E94BF0EC80186
:101D70000E94790D870153CF10E000E050CFFB01A6
:101D8000DC0102C001900D9241505040D8F70895F7
:101D9000FB01DC010D900020E9F7119701900D92F5
:101DA0000020E1F70895FC018191861721F0882336
:101DB000D9F7992708953197CF010895FB01DC01E8
:101DC0008D91019080190110D9F3990B0895FB01B1
:101DD000DC0101900D920020E1F70895FB01DC0188
:101DE0004150504030F08D910190801919F400203D
:101DF000B9F7881B990B0895FB01DC014150504055
:101E000048F001900D920020C9F701C01D92415089
:101E10005040E0F70895FB0151915523A9F0BF010F
:101E2000DC014D9145174111E1F759F4CD010190C5
:101E3000002049F04D9140154111C9F3FB014111BA
:0E1E4000EFCF81E090E001970895F894FFCF76
:101E4E0000002803800000000000FF011F014C016C
:101E5E004C02BD015B01AF010D0A007B227265735E
:101E6E00706F6E7365223A2200222C2270696E22E8
:101E7E003A002C2276616C7565223A007B226163F2
:101E8E006B223A2200747275650066616C73650090
:101E9E00636D64007B226572726F72223A226E6FDE
:101EAE0020636D64227D006765745F696E666F00E6
:101EBE0070696E5F6D6F64650070696E0076616C3F
:101ECE007565006469676974616C5F7772697465C2
:101EDE00006469676974616C5F7265616400616E4C
:101EEE00616C6F675F777269746500616E616C6FAC
:101EFE00675F7265616400736572766F5F77726992
:101F0E00746500616E676C6500756C747261736FD9
:101F1E006E69635F736574757000747269670065CE
:101F2E0063686F00756C747261736F6E69635F7254
:101F3E00656164007265736574007B226572726FF1
:101F4E0072223A22756E6B6E6F776E20636D64220D
:0A1F5E002C22636D64223A22000079
:00000001FF
