:100000000C9457010C9488010C9488010C9488017D
:100010000C9488010C9488010C9488010C9488013C
:100020000C9488010C9488010C9488010C9488012C
:100030000C9488010C9488010C9488010C9488011C
:100040000C9488010C9461070C9488010C9488012D
:100050000C9488010C9488010C9488010C942D0652
:100060000C9488010C94A1060C9477060C948801DA
:100070000C9488010C9488010C9488010C948801DC
:100080000C9433070C9488010C9488010C9488011B
:100090000C9488010C9488010C9488010C948801BC
:1000A0000C9488010C9488010C9405070C94880129
:1000B0000C9488010C9488010C9488010C94D70648
:1000C0000C9488010C9488010C9488010C9488018C
:1000D0000C9488010C9488010C9488010C9488017C
:1000E0000C9488010C94E9010C94F9020C945B02C5
:1000F0000C9488020C94EC0A0C941F0B0C94FB0AD1
:100100000C94170B0C94560B0C943D0B0C94C301E0
:100110000C94D4070C94E3010C94DF010C94A80117
:100120000C94740B0C94CD010C94ED010C94600BA9
:100130000C94AE010C94050B0C947E030C943103CB
:100140000C94B2010C94D5010C94DB010C944C0B73
:100150000C947E0B0C94F10A0C94E8010C94EB02C5
:100160000C946A0B0C9497020C94D1010C94C70167
:100170000C94E30A0C940F0B0C94BD010C94BA017F
:100180000C94290B0C94330B0C94B6010000200046
:100190002300260029002C002F003200000100005F
:1001A00003010601090100002100240027002A00A4
:1001B0002D003000330001010000040107010A0195
:1001C00000002200250028002B002E003100340002
:1001D00002010000050108010B01050505050705E1
:1001E00008080808020202020A0A080804040404B3
:1001F00001010101010101010303030303030303DF
:10020000040707070C0C0C0C0C0C0C0C020202026D
:1002100006060606060606060B0B0B0B0B0B0B0B56
:100220000102102020080810204010204080020108
:1002300002010804020101020408102040808040ED
:1002400020100804020180040201804020100804EC
:10025000020108040201010204081020408001028A
:1002600004081020408000000A0B02090C0D0E0843
:10027000070304010000000000000000000000006F
:10028000000000000000000000000000000000006E
:10029000000012111000000000000000000000002B
:1002A000000000000000000000000000D40711243E
:1002B0001FBECFEFD1E2DEBFCDBF00E00CBF13E029
:1002C000A0E0B2E0E4E4F4E200E00BBF02C007907B
:1002D0000D92AA31B107D9F724E0AAE1B3E001C039
:1002E0001D92A739B207E1F711E0C7E5D1E000E0C0
:1002F00006C021970109802FFE010E94AC0FC63570
:10030000D10780E00807A9F70E9439080C94201251
:100310000C9400008150823108F05AC0E82FF0E0C0
:100320008827EA56FE4F8F4F0C94AC0FB601BA01E6
:10033000A801AE01B201E801BD01C301C701CD01B1
:10034000D101D501DB01DF01E801E301E901ED01A4
:10035000809180008F778093800008958091800045
:100360008F7DF9CF80918000877FF5CF84B58F771F
:1003700084BD089584B58F7DFBCF8091B0008F77C9
:100380008093B00008958091B0008F7DF9CF809167
:1003900090008F77809390000895809190008F7DDA
:1003A000F9CF80919000877FF5CF8091A0008F7763
:1003B0008093A00008958091A0008F7DF9CF809157
:1003C000A000877FF5CF809120018F778093200157
:1003D0000895809120018F7DF9CF80912001877F42
:1003E000F5CF1F93CF93DF93282F30E0F901EA591F
:1003F000FD4F8491F901E05EFD4FD491F901E65281
:10040000FE4FC491CC23A9F0162F81110E948A01BE
:10041000EC2FF0E0EE0FFF1FE054FE4FA591B491DA
:100420008FB7F894EC91111108C0D095DE23DC93BE
:100430008FBFDF91CF911F910895DE2BF8CFCF931F
:10044000DF9390E0FC01E05EFD4F249186529E4FC9
:10045000FC0184918823C9F090E0880F991FFC016A
:10046000EA55FE4FA591B491FC01E054FE4FC591B1
:10047000D49161110DC09FB7F8948C91209582237F
:100480008C938881282328839FBFDF91CF91089583
:10049000623051F49FB7F8943C91822F809583236A
:1004A0008C93E8812E2BEFCF8FB7F894EC912E2B05
:1004B0002C938FBFEACFAF92BF92CF92DF92EF9291
:1004C000FF920F931F93CF93DF936C017B018B01FE
:1004D000040F151FEB015E01AE18BF08C017D1074E
:1004E00059F06991D601ED91FC910190F081E02DD8
:1004F000C6011995892B79F7C501DF91CF911F911D
:100500000F91FF90EF90DF90CF90BF90AF90089544
:10051000FC01538D448D252F30E0842F90E0821B09
:10052000930B541710F0CF96089501970895FC018E
:10053000918D828D981761F0A28DAE0FBF2FB11DE6
:100540005D968C91928D9F5F9F73928F90E008953E
:100550008FEF9FEF08952FB7F89480913D0390910E
:100560003E03A0913F03B09140032FBF8093490306
:1005700090934A03A0934B03B0934C0381E493E020
:100580000E94970297FF26C02FB7F89480913D03F1
:1005900090913E03A0913F03B09140032FBF409143
:1005A000490350914A0360914B0370914C03841BA3
:1005B000950BA60BB70B40914503509146036091F4
:1005C00047037091480384179507A607B707B0F251
:1005D0008FEF9FEF0895FC01918D828D981731F078
:1005E000828DE80FF11D858D90E008958FEF9FEFCC
:1005F0000895FC01918D228D892F90E0805C9F4FA2
:10060000821B91098F739927089581E493E00E94DA
:10061000F90221E0892B09F420E0822F0895FC01E2
:10062000A48DA80FB92FB11DA35ABF4F2C91848D53
:1006300090E001968F739927848FA689B7892C93B0
:10064000A089B1898C91837080648C93938D848D03
:10065000981306C00288F389E02D80818F7D808306
:100660000895EF92FF920F931F93CF93DF93EC01C6
:1006700081E0888F9B8D8C8D98131AC0E889F98949
:10068000808185FF15C09FB7F894EE89FF8960834C
:10069000E889F98980818370806480839FBF81E0CD
:1006A00090E0DF91CF911F910F91FF90EF9008950F
:1006B000F62E0B8D10E00F5F1F4F0F731127E02EEA
:1006C0008C8D8E110CC00FB607FCFACFE889F98922
:1006D000808185FFF5CFCE010E940F03F1CFEB8D16
:1006E000EC0FFD2FF11DE35AFF4FF0829FB7F894F6
:1006F0000B8FEA89FB8980818062CFCFCF93DF9314
:10070000EC01888D8823B9F0AA89BB89E889F98929
:100710008C9185FD03C0808186FD0DC00FB607FC5E
:10072000F7CF8C9185FFF2CF808185FFEDCFCE0191
:100730000E940F03E9CFDF91CF91089580E090E010
:10074000892B29F00E94050381110E94000080E09E
:1007500090E0892B49F080E090E0892B29F00E94FD
:10076000000081110E94000080E090E0892B49F098
:1007700080E090E0892B29F00E94000081110E9406
:10078000000080E090E0892B49F080E090E0892B28
:1007900029F00E94000081110C9400000895AF928E
:1007A000BF92CF92DF92EF92FF920F931F93CF935E
:1007B000DF936B017A01EC01C65EDC4F28813CE0DF
:1007C000389F8001399F100D1124A0906E04B12C28
:1007D00027FF1FC0FB011182108288818F5F8883F1
:1007E00088819801280F311D87FD3A95F6012A1559
:1007F0003B051CF488818C30C4F180819181049682
:1008000080349C4908F473C0F6018081918104967C
:1008100070C088819801280F311D87FD3A952A15EF
:100820003B05DCF68881A801480F511D87FD5A95CC
:10083000FA01EE0FFF1FE40FF51FE252FC4F80811B
:1008400086FFCBCF8881F801E80FF11D87FDFA956F
:10085000CF01EE0FFF1FE80FF91FE252FC4F80811E
:1008600060E08F730E94F101B8CF8081918128816F
:10087000A801420F511D27FD5A959A01FA01EE0F6A
:10088000FF1FE20FF31FE252FC4F21813281820FE2
:10089000931FF7019183808388819801280F311D70
:1008A00087FD3A95F901EE0FFF1FE20FF31FE252A9
:1008B000FC4F808186FF22C08881080F111D87FDB3
:1008C0001A95F801EE0FFF1FE00FF11FE252FC4FE7
:1008D000808161E08F73DF91CF911F910F91FF9025
:1008E000EF90DF90CF90BF90AF900C94F10180E437
:1008F0009CE9F701918380838FEF8883DF91CF910B
:100900001F910F91FF90EF90DF90CF90BF90AF902D
:100910000895FC0101900020E9F73197AF01481BD1
:10092000590BBC0181E493E00C945B02CF93DF93FD
:100930000E948904EC0188E192E00E9489048C0FF6
:100940009D1FDF91CF9108950C9489048F929F92FF
:10095000AF92BF92CF92DF92EF92FF920F931F93CD
:10096000CF93DF93CDB7DEB7A1970FB6F894DEBF74
:100970000FBECDBF6C01990FEE08FF08F7FE41C016
:100980006DE281E493E00E9431038C01222733273A
:10099000A9012C193D094E095F0919A2CE018196C2
:1009A0007C019AE0892E912CA12CB12CCA01B901AD
:1009B000A50194010E94390F605DF70162937F01E8
:1009C000211531054105510589F790E080E0309708
:1009D00019F0CF010E948904800F911FA1960FB6D4
:1009E000F894DEBF0FBECDBFDF91CF911F910F9165
:1009F000FF90EF90DF90CF90BF90AF909F908F903F
:100A00000895A701960119A28E010F5D1F4F8AE07C
:100A1000C82ED12CE12CF12CCA01B901A7019601F5
:100A20000E94390F605DF80162938F012115310535
:100A30004105510589F790E080E0309779F2CF01C8
:100A40000E948904CBCFEF92FF920F931F93CF9315
:100A5000DF937C018B01EA018BE192E00E94A40408
:100A6000C7010E94A40489E292E00E94A404C80184
:100A70000E94A60482E392E00E94A404CE010E9498
:100A8000A60485E692E0DF91CF911F910F91FF9030
:100A9000EF900C949604EF92FF920F931F93CF93D5
:100AA000DF937C018B01EA018CE392E00E94A404B5
:100AB000C7010E94A40489E292E00E94A404C80134
:100AC0000E94A60482E392E00E94A404CE010E9448
:100AD000A60485E692E0DF91CF911F910F91FF90E0
:100AE000EF900C9496040F931F93CF93DF93EC0138
:100AF00088819981009759F02A813B812617370711
:100B000030F081E0DF91CF911F910F9108958B011B
:100B10006F5F7F4F0E94D910009759F099838883A7
:100B20001B830A832C813D81232B59F7FC01108202
:100B3000E8CF80E0E7CFCF92DF92EF92FF920F9362
:100B40001F93CF93DF93CDB7DEB7E0970FB6F8943E
:100B5000DEBF0FBECDBF7C016B0167E173E08E018C
:100B60000F5F1F4FC8010E94E211B601C8010E9429
:100B7000C31169E372E0C8010E94C311B801C70143
:100B80000E940612009709F462C0F801019000204B
:100B9000E9F73197E01BF10BE80FF91F7F01919105
:100BA0009032E1F3923289F57F0162E270E0CF0189
:100BB0000E94CE11009709F44AC08C010E191F093A
:100BC0000031110514F00FE010E0A801B701CE01CB
:100BD00081960E94F711E1E2F0E0EC0FFD1FE00FBB
:100BE000F11F1082CE0181960E94DA0DE0960FB6B9
:100BF000F894DEBF0FBECDBFDF91CF911F910F9153
:100C0000FF90EF90DF90CF9008959D3219F09053B0
:100C10009A3010F4C701E8CF44E050E065E472E098
:100C2000C7010E94E911892BA9F045E050E06AE470
:100C300072E0C7010E94E91121E030E0892B11F434
:100C400030E020E088279927821B930BCFCF8FEFCE
:100C50009FEFCCCF81E090E0C9CF1F920F920FB6EB
:100C60000F9211242F933F938F939F93AF93BF9332
:100C700080913D0390913E03A0913F03B0914003CA
:100C800030913C0323E0230F2D3758F50196A11D29
:100C9000B11D20933C0380933D0390933E03A093AA
:100CA0003F03B09340038091380390913903A091A2
:100CB0003A03B0913B030196A11DB11D8093380307
:100CC00090933903A0933A03B0933B03BF91AF9144
:100CD0009F918F913F912F910F900FBE0F901F907A
:100CE000189526E8230F0296A11DB11DD2CF1F92A1
:100CF0000F920FB60F9211240BB60F922F933F93C2
:100D00004F935F936F937F938F939F93AF93BF9313
:100D1000EF93FF9381E493E00E940F03FF91EF9123
:100D2000BF91AF919F918F917F916F915F914F9103
:100D30003F912F910F900BBE0F900FBE0F901F9001
:100D400018951F920F920FB60F9211240BB60F92A7
:100D50002F938F939F93EF93FF93E0915103F09123
:100D600052038081E0915703F091580382FD1DC02A
:100D7000908180915A038F5F8F7320915B0382175C
:100D800041F0E0915A03F0E0EF5BFC4F958F8093C8
:100D90005A03FF91EF919F918F912F910F900BBE6E
:100DA0000F900FBE0F901F9018958081F2CF1F9269
:100DB0000F920FB60F9211240BB60F922F933F9301
:100DC0004F935F936F937F938F939F93AF93BF9353
:100DD000EF93FF9348E251E064E271E090E080E03D
:100DE0000E94CF03FF91EF91BF91AF919F918F919F
:100DF0007F916F915F914F913F912F910F900BBE1B
:100E00000F900FBE0F901F9018951F920F920FB664
:100E10000F9211240BB60F922F933F934F935F9332
:100E20006F937F938F939F93AF93BF93EF93FF93B2
:100E300048EA50E064EA70E083E090E00E94CF036B
:100E4000FF91EF91BF91AF919F918F917F916F91A2
:100E50005F914F913F912F910F900BBE0F900FBE5E
:100E60000F901F9018951F920F920FB60F9211249A
:100E70000BB60F922F933F934F935F936F937F9394
:100E80008F939F93AF93BF93EF93FF9348E950E005
:100E900064E970E082E090E00E94CF03FF91EF915F
:100EA000BF91AF919F918F917F916F915F914F9182
:100EB0003F912F910F900BBE0F900FBE0F901F9080
:100EC00018951F920F920FB60F9211240BB60F9226
:100ED0002F933F934F935F936F937F938F939F9342
:100EE000AF93BF93EF93FF9348E850E064E870E05E
:100EF00081E090E00E94CF03FF91EF91BF91AF910D
:100F00009F918F917F916F915F914F913F912F9121
:100F10000F900BBE0F900FBE0F901F901895CF92A1
:100F2000DF92EF92FF920F931F93E82FF92F05C0E6
:100F3000015011092109310961F19081962394171B
:100F4000B9F305C0015011092109310911F190814E
:100F500096239413F7CFC12CD12CE12CF12C0AC08D
:100F60008FEFC81AD80AE80AF80A0C151D052E05D5
:100F70003F0579F080818623841791F36C2D7D2DB8
:100F80008E2D9F2D1F910F91FF90EF90DF90CF90AE
:100F9000089560E070E080E090E01F910F91FF9075
:100FA000EF90DF90CF900895109244031092430386
:100FB00088EE93E0A0E0B0E0809345039093460371
:100FC000A0934703B09348038AE092E090934203D2
:100FD0008093410385EC90E090934E0380934D0302
:100FE00084EC90E09093500380934F0380EC90E06A
:100FF000909352038093510381EC90E090935403BB
:101000008093530382EC90E09093560380935503B2
:1010100086EC90E0909358038093570310925A0304
:1010200010925B0310925C0310925D03EFE6F4E014
:1010300023E934E04FEF68EB7BE080916E0480336E
:10104000B0F491E0980F90936E04808390E0DC01FF
:10105000AA0FBB1FA80FB91FA252BC4F12967C93B8
:101060006E93119733962E173F0739F708954083F3
:10107000F9CFCF93DF93CDB7DEB7C854D1090FB600
:10108000F894DEBF0FBECDBF789484B5826084BD76
:1010900084B5816084BD85B5826085BD85B581607C
:1010A00085BD80916E00816080936E0010928100FA
:1010B00080918100826080938100809181008160B5
:1010C0008093810080918000816080938000809176
:1010D000B10084608093B1008091B0008160809302
:1010E000B000809191008260809391008091910086
:1010F0008160809391008091900081608093900046
:101100008091A10082608093A1008091A100816004
:101110008093A1008091A00081608093A0008091C5
:10112000210182608093210180912101816080935F
:1011300021018091200181608093200180917A00BB
:10114000846080937A0080917A00826080937A0034
:1011500080917A00816080937A0080917A00806823
:1011600080937A001092C100E0915103F0915203F4
:1011700082E08083E0914D03F0914E031082E09174
:101180004F03F091500380E1808310925903E09166
:101190005503F091560386E08083E0915303F0916C
:1011A0005403808180618083E0915303F091540364
:1011B000808188608083E0915303F09154038081A3
:1011C00080688083E0915303F091540380818F7D88
:1011D000808361E08DE00E941F029E012F5F3F4FE0
:1011E00039015CE0452E62E0562E78E5272E72E04C
:1011F000372E81E493E00E94F902181619060CF0CC
:1012000010C123961FAE1EAE239725961FAE1EAEAD
:10121000259727961FAE1EAE279770E060E0CE019F
:101220008F5B9F4F0E94730523962EAD3FAD239792
:1012300081113BC02115310519F0C9010E945010E0
:1012400023961FAE1EAE239727961FAE1EAE27977E
:1012500025961FAE1EAE25970E94AB0227960EADB7
:101260001FAD279797FD2BC08A30910541F18983E7
:101270001A820F5F1F4FB801CE018F5B9F4F0E94F4
:101280007305882349F323962EAD3FAD2397279608
:101290008EAD9FAD2797B301820F931F0E94E2117D
:1012A00027961FAF0EAF2797D7CF27961FAE1EAE3C
:1012B00027976AE172E0C9010E94E211CDCF23961F
:1012C000CEACDFAC2397C114D10429F0760101150F
:1012D000110509F052C027968EAD9FAD2797892B37
:1012E00009F497C023960EAD1FAD239719A267E1AD
:1012F00073E0C3010E94E21160E572E0C3010E9445
:10130000C31165E173E0C3010E94C311B301C801B9
:101310000E940612009741F1F30101900020E9F7C5
:101320003197E619F7096C01CE0EDF1E62E270E01C
:10133000C6010E94CE110097B9F07C01EC18FD089F
:10134000F0E2EF16F1041CF04FE1E42EF12CA701BE
:10135000B601CE0181960E94F711E1E2F0E0EC0FB8
:10136000FD1FEE0DFF1D108289A1811142C084E591
:1013700092E00E9496044DC0750157013FEFA31AF9
:10138000B30AF7018081082E000C990B0E94000E11
:10139000892B91F7015011090C0D1D1DF801808159
:1013A000082E000C990B0E94000E892B31F00E15AF
:1013B0001F0518F001501109F1CFA8014F5F5F4FD1
:1013C0004E195F0927965FAF4EAF2797CE14DF0403
:1013D00020F4B701C6010E94BA112396EEADFFAD0D
:1013E000239727968EAD9FAD2797E80FF91F1082A0
:1013F00072CF67E672E0CE0181960E94D911892BE7
:1014000099F441E050E070E060E087E692E00E94ED
:10141000230523968EAD9FAD2397009711F00E9470
:1014200050100E949E03E5CE60E772E0CE018196E7
:101430000E94D911892B01F569E772E0C8010E9469
:101440009B057C016DE772E0C8010E949B058C0141
:10145000F7FCDFCF62E08230910521F060E0892B5C
:1014600009F061E08E2D0E941F02A801B70180E7FC
:1014700092E00E944B05CDCF63E872E0CE018196E9
:101480000E94D911892BD9F469E772E0C8010E9442
:101490009B057C016DE772E0C8010E949B05F7FC8B
:1014A000B8CF11E0892B09F410E0612F8E2D0E9436
:1014B000F101412F50E0B70183E892E0DACF61E912
:1014C00072E0CE0181960E94D9117C01892B09F02E
:1014D00030C069E772E0C8010E949B058C0197FD4E
:1014E00098CF9C013327F901EA59FD4F8491F90106
:1014F000E05EFD4FC490F901E652FE4FD490DD202E
:1015000099F081110E948A01ED2DF0E0EE0FFF1F8E
:10151000E457FE4FA591B491EC91CE2291E080E08A
:1015200009F490E0E92EF82EA701B80181E992E0D4
:101530006ECF6EE972E0CE0181960E94D911892B9F
:1015400009F0E1C069E772E0C8010E949B057C01D7
:101550006DE772E0C8010E949B058C01F7FC59CF32
:1015600061E08E2D0E941F020115110529F460E033
:101570008E2D0E94F1012BC00F3F110511F461E087
:10158000F7CFF701FF27EA59FD4FE491E150E2312F
:1015900008F0B4C0F0E08827EF52F54F8F4F0C945D
:1015A000AC0FE30AEC0AF10AFB0A050B7E0B0F0BEA
:1015B000170B1F0B290B330B3D0B4C0B560B7E0BE4
:1015C000600B6A0B740B84B5806884BD07BDA801ED
:1015D000B7018EE992E04DCF84B5806284BD08BD2D
:1015E000F6CF8091800080688093800010938900FE
:1015F00000938800ECCF809180008062809380000F
:1016000010938B0000938A00E2CF80918000886065
:101610008093800010938D0000938C00D8CF809130
:10162000B00080688093B0000093B300D0CF809169
:10163000B00080628093B0000093B400C8CF809166
:101640009000806880939000109399000093980018
:10165000BECF8091900080628093900010939B0099
:1016600000939A00B4CF809190008860809390009E
:1016700010939D0000939C00AACF8091A0008068E9
:101680008093A0008091A0008F7B8093A000109396
:10169000A9000093A8009BCF8091A0008062809356
:1016A000A0001093AB000093AA0091CF8091A000FE
:1016B00088608093A0001093AD000093AC0087CFAA
:1016C000809120018068809320011093290100936C
:1016D00028017DCF809120018062809320011093AA
:1016E0002B0100932A0173CF8091200188608093A1
:1016F000200110932D0100932C0169CF00381105B2
:101700000CF03DCF34CF6BEA72E0CE0181960E949F
:10171000D911892B49F569E772E0C8010E949B0540
:10172000BC0197FD76CE982F863310F09AEC960F79
:1017300020917B00892F8870277F822B80937B00EC
:101740009770906490937C0080917A00806480937D
:101750007A0080917A0086FDFCCF4091780050910C
:1017600079008BEA92E053CE67EB72E0CE0181966E
:101770000E94D9116C01892B09F057C069E772E00A
:10178000C8010E949B0529969FAF8EAF299763ECF5
:1017900072E0C8010E949B058C0129962EAD3FADD9
:1017A000299737FD36CEE0903603F0903703EEE10F
:1017B000F3E0CE14DF040CF0F8C0819191912996EA
:1017C0006EAD7FAD29976817790709F470C17FEF77
:1017D000C71AD70AEECF823061F41092900080933E
:1017E0009100109295001092940088BB8093710034
:1017F00040C1833061F41092A0005092A100109279
:10180000A5001092A40059BA5092720032C1811101
:1018100030C11092200150922101109225011092A6
:1018200024015ABA5092730024C169EC72E0CE01CF
:1018300081960E94D911892BE9F46AED72E0C80102
:101840000E949B057C016FED72E0C8010E949B0520
:101850008C01F7FC04C061E08E2D0E941F0217FD71
:1018600004C060E0802F0E941F02A801B70189EC2C
:1018700092E0FFCD64EE72E0CE0181960E94D91114
:10188000892B09F05BC069E772E0C8010E949B05E3
:101890007C016FED72E0C8010E949B058C0197FFEF
:1018A00086C1F7FCB6CD870160E08E2D0E94F10164
:1018B00083E090E00197F1F761E08E2D0E94F10145
:1018C00083E290E00197F1F760E08E2D0E94F10134
:1018D0001127F801E05EFD4F6491F801E652FE4FDA
:1018E000E491F0E0EE0FFF1FE457FE4F85919491D5
:1018F00000E315E720E030E0462F0E948F076115D6
:1019000071058105910529F06F5F7F4F8F4F9F4FC4
:101910009F700E940B0E26E933E44BE05DE30E94CA
:10192000460E20E030E040E05FE30E94460E0E9459
:101930006A0FAB01B70184EE92E069CD64EF72E00B
:10194000CE0181960E94D911009721F5209136038E
:1019500030913703AFE6B4E08217930784F4EC913B
:101960004E2F50E0FA01EE0FFF1FE40FF51FE25279
:10197000FC4F40814F7B408301961396EDCF109230
:1019800037031092360350E040E070E060E084EFEF
:1019900092E06FCD8AEF92E00E94A404CE0181967E
:1019A0000E94A40484E692E0E4CCFCE0EF16F1048B
:1019B00009F4F5C06701CC0CDD1CF601E25EFC4FBA
:1019C00029968EAD9FAD299791838083C6018E0D98
:1019D0009F1DFC01E159FB4F4F018081803308F0CE
:1019E0005AC061E028968FAD28970E941F02F4012B
:1019F0008081282F30E0F901EE0FFF1FE20FF31F67
:101A0000E252FC4F9081907C28962FAD28972F733F
:101A1000922B9083F40111821282642D0E94A00FF8
:101A2000849DF001112450E040E0BF01640F751F58
:101A30009B01220F331F260F371FD901A252BC4F23
:101A40009C9196FD16C04F5F5F4F4C30510569F772
:101A5000813009F0C0CE1092800050928100109227
:101A6000850010928400B19A80916F00826080930B
:101A70006F00F601EE0DFF1DE159FB4FE0818E2F47
:101A800090E0FC01EE0FFF1FE80FF91FE252FC4F40
:101A90008081806480838091360390913703019622
:101AA0009093370380933603F7FC79C0670117FDE5
:101AB00076C07601EE0CFF1C98010032F2E01F07A1
:101AC000C4F5F701EC0DFD1DE159FB4F818128E8BC
:101AD00030E0281B310987FD3395220F331F220F79
:101AE000331F4901330FAA08BB0882819101281BCB
:101AF000310987FD3395220F331F220F331F032E29
:101B0000000C440B550B281939094A095B09D80107
:101B1000053B110514F0A4EBB0E00E94310F24EB5B
:101B200030E040E050E00E94070F280D391D4A1DAB
:101B30005B1DF701EC0DFD1DE159FB4F408140336A
:101B400070F5818168E870E0681B710987FD739505
:101B5000CB01880F991F880F991F281739077CF030
:101B60008281F101E81BF10987FDF395CF01880F10
:101B7000991F880F991F281739070CF4C90102977C
:101B8000880F991F2FB7F89450E0FA01EE0FFF1F4E
:101B9000E40FF51FE252FC4F928381832FBFA8010F
:101BA00029966EAD7FAD299787EB92E062CCF7FE68
:101BB0007BCE2FCCFC0188279927E89421912032F5
:101BC000E9F3293010F02E30C8F32B3241F02D32DA
:101BD00039F4689404C00E94F80D820F911D219180
:101BE00020532A30C0F31EF4909581959F4F08959D
:101BF0007AE0979F902D879F802D910D1124089555
:101C000091110C94B30E803219F089508550C8F7A9
:101C10000895E89409C097FB3EF4909580957095DF
:101C200061957F4F8F4F9F4F9923A9F0F92F96E928
:101C3000BB279395F695879577956795B795F1119D
:101C4000F8CFFAF4BB0F11F460FF1BC06F5F7F4F3A
:101C50008F4F9F4F16C0882311F096E911C077234C
:101C600021F09EE8872F762F05C0662371F096E855
:101C7000862F70E060E02AF09A95660F771F881F24
:101C8000DAF7880F9695879597F908950E94590E6F
:101C90000C94CD0E0E94BF0E38F00E94C60E20F0AC
:101CA000952311F00C94B60E0C94BC0E11240C94D8
:101CB000010F0E94DE0E70F3959FC1F3950F50E067
:101CC000551F629FF001729FBB27F00DB11D639FEE
:101CD000AA27F00DB11DAA1F649F6627B00DA11D94
:101CE000661F829F2227B00DA11D621F739FB00D3A
:101CF000A11D621F839FA00D611D221F749F3327AA
:101D0000A00D611D231F849F600D211D822F762F42
:101D10006A2F11249F5750409AF0F1F088234AF01F
:101D2000EE0FFF1FBB1F661F771F881F915050408B
:101D3000A9F79E3F510580F00C94B60E0C94010F4C
:101D40005F3FE4F3983ED4F3869577956795B79512
:101D5000F795E7959F5FC1F7FE2B880F911D96952C
:101D6000879597F9089599278827089597F99F6788
:101D700080E870E060E008959FEF80EC0895002413
:101D80000A941616170618060906089500240A94E0
:101D900012161306140605060895092E0394000C66
:101DA00011F4882352F0BB0F40F4BF2B11F460FFF5
:101DB00004C06F5F7F4F8F4F9F4F089557FD90581E
:101DC000440F551F59F05F3F71F04795880F97FBFF
:101DD000991F61F09F3F79F08795089512161306B9
:101DE0001406551FF2CF4695F1DF08C016161706E8
:101DF0001806991FF1CF869571056105089408951D
:101E0000E894BB2766277727CB0197F90895052E1D
:101E100097FB1EF400940E941E0F57FD07D00E94EE
:101E2000390F07FC03D04EF40C941E0F50954095CB
:101E3000309521953F4F4F4F5F4F08959095809576
:101E4000709561957F4F8F4F9F4F08950E945B0F54
:101E5000A59F900DB49F900DA49F800D911D1124FE
:101E60000895B7FF0C94260F0E94260F821B930B38
:101E70000895A1E21A2EAA1BBB1BFD010DC0AA1FCB
:101E8000BB1FEE1FFF1FA217B307E407F50720F0E3
:101E9000A21BB30BE40BF50B661F771F881F991F5E
:101EA0001A9469F760957095809590959B01AC01A7
:101EB000BD01CF010895A29FB001B39FC001A39FB0
:101EC000700D811D1124911DB29F700D811D112473
:101ED000911D08950E94710F6894B1110C94010F27
:101EE00008950E94E60E88F09F5798F0B92F992721
:101EF000B751B0F0E1F0660F771F881F991F1AF0F5
:101F0000BA95C9F714C0B13091F00E94000FB1E04A
:101F100008950C94000F672F782F8827B85F39F049
:101F2000B93FCCF3869577956795B395D9F73EF48D
:101F300090958095709561957F4F8F4F9F4F089535
:101F4000991B79E004C0991F961708F0961B881F0B
:101F50007A95C9F780950895EE0FFF1F881F8BBFF4
:101F60000790F691E02D19940F931F93CF93DF9371
:101F70008230910510F482E090E0E0919504F091B8
:101F8000960430E020E0B0E0A0E0309799F421150D
:101F9000310509F44AC0281B390B24303105D8F526
:101FA0008A819B816115710589F1FB01938382838D
:101FB000FE0111C0408151810281138148175907E8
:101FC000E0F04817590799F4109761F012960C93B6
:101FD000129713961C933296CF01DF91CF911F91E8
:101FE0000F9108950093950410939604F4CF211552
:101FF000310551F04217530738F0A901DB019A016E
:10200000BD01DF01F801C1CFEF01F9CF9093960434
:1020100080939504CDCFFE01E20FF31F819391933E
:102020002250310939832883D7CF209193043091EE
:102030009404232B41F42091020230910302309347
:102040009404209393042091000230910102211501
:10205000310541F42DB73EB740910402509105027D
:10206000241B350BE0919304F0919404E217F307DD
:10207000A0F42E1B3F0B2817390778F0AC014E5FF8
:102080005F4F2417350748F04E0F5F1F509394049D
:1020900040939304819391939FCFF0E0E0E09CCF35
:1020A000CF93DF930097E9F0FC01329713821282FD
:1020B000A0919504B0919604ED0130E020E01097D6
:1020C000A1F420813181820F931F209193043091DC
:1020D00094042817390709F061C0F0939404E09341
:1020E0009304DF91CF910895EA01CE17DF07E8F559
:1020F0004A815B819E0141155105B1F7E901FB83DE
:10210000EA8349915991C40FD51FEC17FD0761F47B
:10211000808191810296840F951FE90199838883BC
:10212000828193819B838A83F0E0E0E012968D9117
:102130009C9113970097B9F52D913C911197CD0182
:102140000296820F931F20919304309194042817D4
:10215000390739F6309751F510929604109295048C
:10216000B0939404A0939304BCCFD383C2834081E3
:102170005181840F951FC817D90761F44E5F5F4FD7
:1021800088819981480F591F518340838A819B819F
:10219000938382832115310509F0B0CFF093960423
:1021A000E09395049ECFFD01DC01C0CF1382128223
:1021B000D7CF4F925F926F927F928F929F92AF9202
:1021C000BF92CF92DF92EF92FF920F931F93CF9324
:1021D000DF938C01009799F4CB01DF91CF911F9190
:1021E0000F91FF90EF90DF90CF90BF90AF909F90B6
:1021F0008F907F906F905F904F900C94B40FFC0184
:10220000E60FF71F9C0122503109E217F30708F48B
:10221000AEC0D901CD91DC911197C617D70720F137
:10222000C530D10578F0CE0104978617970750F096
:10223000C61BD70B2297C193D1936D937C93CF018B
:102240000E945010C801DF91CF911F910F91FF9014
:10225000EF90DF90CF90BF90AF909F908F907F9046
:102260006F905F904F9008955B01AC1ABD0A4C01CE
:102270008C0E9D1EA0919504B0919604512C412C7A
:10228000F12CE12C109731F58091930490919404F6
:102290008815990509F05CC04616570608F058C025
:1022A0008091000290910102009741F48DB79EB792
:1022B0004091040250910502841B950BE817F90721
:1022C00008F055C0F0939404E0939304F9017183EE
:1022D0006083B8CF8D919C91119712966C90129754
:1022E00013967C901397A815B90559F56C0142E037
:1022F000C40ED11CCA14DB0420F1AC014A195B09DD
:10230000DA011296159780F06282738251834083BE
:10231000D9016D937C93E114F10471F0D701139608
:10232000FC93EE9312978ECF22968C0F9D1FF9018E
:1023300091838083F301EFCFF0939604E0939504AB
:1023400081CF4816590608F42C017D01D3019ACF9C
:10235000CB010E94B40F7C01009749F0AE01B80197
:102360000E94BA11C8010E94501087016BCF10E083
:1023700000E068CFFB01DC0102C001900D924150EA
:102380005040D8F70895FB01DC010D900020E9F7DB
:10239000119701900D920020E1F70895FC018191C1
:1023A000861721F08823D9F7992708953197CF010F
:1023B0000895FB01DC018D91019080190110D9F382
:1023C000990B0895FB01DC0101900D920020E1F7CB
:1023D0000895FB01DC014150504030F08D91019097
:1023E000801919F40020B9F7881B990B0895FB0197
:1023F000DC014150504048F001900D920020C9F797
:1024000001C01D9241505040E0F70895FB015191E9
:102410005523A9F0BF01DC014D9145174111E1F7AA
:1024200059F4CD010190002049F04D914015411122
:10243000C9F3FB014111EFCF81E090E001970895CE
:04244000F894FFCF3E
:102444000000970480000000000031035B02880252
:102454007E03F9029702EB020D0A007B2272657378
:10246400706F6E7365223A2200222C2270696E22EC
:102474003A002C2276616C7565223A007B226163F6
:102484006B223A2200747275650066616C73650094
:10249400636D64007B226572726F72223A226E6FE2
:1024A40020636D64227D006765745F696E666F00EA
:1024B40070696E5F6D6F64650070696E0076616C43
:1024C4007565006469676974616C5F7772697465C6
:1024D400006469676974616C5F7265616400616E50
:1024E400616C6F675F777269746500616E616C6FB0
:1024F400675F7265616400736572766F5F77726996
:10250400746500616E676C6500756C747261736FDD
:102514006E69635F736574757000747269670065D2
:1025240063686F00756C747261736F6E69635F7258
:10253400656164007265736574007B226572726FF5
:1025440072223A22756E6B6E6F776E20636D642211
:0A2554002C22636D64223A2200007D
:00000001FF
